:020000040800F2
:10000000F8120020A101000841280008D7200008AC
:10001000F127000843070008C12D00080000000078
:10002000000000000000000000000000DF280008C1
:10003000D90700080000000043280008E128000854
:10004000BB010008BB010008BB010008BB010008A0
:10005000BB010008BB010008BB010008BB01000890
:10006000BB010008BB010008BB010008BB01000880
:10007000BB010008BB010008BB010008BB01000870
:10008000BB010008BB010008BB010008BB01000860
:10009000BB010008BB010008BB010008BB01000850
:1000A000BB01000891290008BB010008BB01000842
:1000B000BB010008BB010008BB010008BB01000830
:1000C000BB010008BB010008BB010008BB01000820
:1000D000BB010008B52D0008BB010008BB010008EA
:1000E000BB010008BB010008BB010008BB01000800
:1000F000BB010008BB010008BB010008BB010008F0
:10010000BB010008BB010008BB010008BB010008DF
:10011000BB010008BB010008BB010008BB010008CF
:10012000BB010008BB01000845070008BB0100082F
:10013000BB0100080000000000000000BB01000837
:10014000BB010008BB010008BB010008BB0100089F
:10015000BB010008BB01000851070008BB010008F3
:10016000BB010008BB010008BB010008BB0100087F
:10017000BB010008BB0100080000000000000000F7
:10018000BB010008BB010008DFF810D000F058FAEE
:1001900000480047D5360008AFF30080F812002071
:1001A0000648804706480047FEE7FEE7FEE7FEE711
:1001B000FEE7FEE7FEE7FEE7FEE7FEE7812900082F
:1001C000890100082DE9F05F0546002092469B4614
:1001D00088460646814640241BE02846414647465D
:1001E000224600F065F853465A46C01A914110D392
:1001F00011461846224600F04CF82D1A67EB01080C
:100200004F4622460120002100F043F817EB000979
:100210004E41201EA4F10104DFDC484631462A4647
:100220004346BDE8F09FD2B201E000F8012B491E21
:10023000FBD270470022F6E710B513460A46044683
:100240001946FFF7F0FF204610BD10B5002200E070
:10025000521C835C8C5CA34201D1002BF8D1D8B234
:10026000E1B2401A10BD30B50B46014600202022F5
:10027000012409E021FA02F59D4205D303FA02F5B3
:10028000491B04FA02F52844151EA2F10102F1DC13
:1002900030BD202A04DB203A00FA02F1002070472A
:1002A0009140C2F1200320FA03F3194390407047B4
:1002B000202A04DB203A21FA02F00021704721FABB
:1002C00002F3D040C2F12002914008431946704722
:1002D0002DE9FE4F804681EA0300C00F0C460090D6
:1002E00021F0004123F00045B8EB0200A94105D2FE
:1002F0004046214690461C460B46024623F00040ED
:10030000104347D0270DC7F30A00C3F30A510290E8
:10031000401A019040286BDAC3F3130040F4801BAD
:100320000098924620B10023D2EB030A63EB0B0B3B
:1003300001985946C0F140025046FFF7AAFF064611
:100340000D4650465946019A00F08CF910EB080012
:100350006141002487EA115284EAE7731A4340D0CE
:10036000009A62B3019A012A4FEA075215DC001B7A
:1003700061EB02014FF0004202EA0752CDE9004270
:10038000001C41F5801132462B4600F08CF903B079
:10039000BDE8F08F40462146F9E7001B61EB020102
:1003A000001C41F5801300185B412018A2F50017CE
:1003B00047EB030140EAD570B6196D4111E06D08B5
:1003C0004FEA360645EAC0754FEA0752001B61EB5B
:1003D0000201001C41F5801149084FEA3000001964
:1003E000514132462B4603B0BDE8F04F00F04CB906
:1003F0000098012240000023D0EB020263EBE0737F
:10040000009821464FEAE074B8EB000061EB04016C
:10041000E9E783F000435BE781F0004158E72DE90D
:10042000FE4F81EA030404F0004421F000410094EF
:100430004FF0000B23F0004350EA01045ED052EA73
:1004400003045BD0C3F30A54C1F30A552C44A4F24D
:10045000F3340194A0FB0254C1F3130141F4801161
:10046000C3F3130343F4801301FB024400FB034E68
:10047000840A970A44EA815447EA8357A4FB076831
:1004800002958D0A05FB07854FEA932C04FB0C545B
:100490002705029D4FEA065847EA1637B5EB0805CF
:1004A0006EEB070C870E920E47EA811742EA831221
:1004B000A7FB0201B6EB0B0164EB00042B0D43EA32
:1004C0000C335E1844EB1C50DA465146E7FB020140
:1004D000C5F313044FEA0B3343EA14534FEA0432D3
:1004E000019C43EA0603A4F10C040294009CCDE9AC
:1004F00000B400F0D8F803B0BDE8F08F002001464A
:10050000F9E72DE9F04D81EA030404F0004B21F0F6
:10051000004514464FF0000A23F0004150EA05025E
:1005200020D054EA01021DD0C5F30A570246C5F394
:100530001303C1F31300C1F30A5640F4801543F4CA
:100540008013A7EB0608101BD64608F2FD3873EBA4
:10055000050002D308F1010801E092185B41B8F1EF
:10056000000F03DA00200146BDE8F08D00204FF4B3
:100570008011064684460EE0171B73EB050705D372
:10058000121B63EB050306434CEA010C49084FEAD2
:10059000300092185B4150EA0107EDD152EA0300A6
:1005A00012D082EA040083EA0501084305D0101B3B
:1005B000AB4106D20122002306E000224FF00043A7
:1005C00002E06FF0010253101AEB06004CEB0851E9
:1005D00010EB0A0041EB0B01BDE8F04D00F054B800
:1005E000C1F30A52C1F3130140F2FF3341F4801109
:1005F0009A4202DA00200146704740F233439A42A1
:10060000A2F2334202DC5242FFF752BEFFF741BE74
:1006100030B5041E71F1000404DB4FF00044404289
:1006200064EB0101141E73F1000405DB1C464FF05E
:100630000043524263EB0403994208BF904230BD2D
:10064000064C074D06E0E06840F0010394E807001F
:1006500098471034AC42F6D3FFF79AFD906E00082D
:10066000B06E0008202A06DBCB17203A41FA02F0D0
:1006700043EAE07306E041FA02F3D040C2F12002FF
:10068000914008431946704710B5141E73F10004D9
:1006900008DA401C41F1000192185B411A4301D174
:1006A00020F0010010BD2DE9F04D92469B4611B19E
:1006B000B1FA81F202E0B0FA80F220329046FFF700
:1006C000E8FD04460F4640EA0A0041EA0B015346A2
:1006D0005A46084313D0114653EA010019D0C8F115
:1006E00040025046FFF7E4FD05460E465046594687
:1006F0004246FFF7CEFD084305D0012004E0204626
:100700003946BDE8F08D0020054346EAE0762C43EB
:1007100037430A986305E40AA0EB08000022FD0AAB
:1007200044EA47540A3002D500200146E9E70105B2
:1007300010196941DDE9084500196941BDE8F04D2E
:10074000A2E7FEE7014800F0A5B80000380200204B
:10075000014800F09FB800009802002001681823AB
:10076000CAB2103AB2FBF3F2054B6FF30901032A48
:100770009B5CC36500D9091D816508467047000070
:10078000706E000810B5014600208B698A6A4FF030
:10079000C07453B1B3F5005F15D072B1012A0CD00B
:1007A000022A0AD0032A09D104E01AB1012A06D08C
:1007B000022A03D1C96AC90100D5012010BDC96A46
:1007C000A142FAD010BD002AF7D0012AF2D0022AA5
:1007D000F3D0032AF3D010BD704772B6FEE72DE9BF
:1007E000F0410446876D00F0A7FA064694F83500FC
:1007F0000025022806D08020606584F8345001204E
:10080000BDE8F0812068016821F0160101602068D0
:10081000416921F080014161206C08B9A06C20B1D0
:100820002068016821F0080101602068016821F05A
:10083000010101600CE000F07FFA801B052807D958
:1008400020206065032084F8350084F83450D7E711
:1008500020680068C007EED194F85C103F20884003
:10086000B860012084F8350084F834500020C7E7D0
:1008700090F83510022903D080214165012070478E
:10088000052180F835100068016821F00101016040
:10089000002070472DE9F84304464FF00009CDF8D9
:1008A000009063484FF41651A56D0068B0FBF1F756
:1008B0002E6894F85C10082000FA01F131420FD044
:1008C00021680A6852070BD50A6822F004020A6000
:1008D00094F85C108840A860606D40F0010060658D
:1008E00094F85C104FF0010808FA01F0304208D08B
:1008F00021684969090604D5A860606D40F00200CE
:10090000606594F85C1004208840304208D021686B
:100910000968890704D5A860606D40F0040060652F
:1009200094F85C1010208840304218D02168096883
:10093000090714D5A86020680168490304D5006838
:10094000000308D5A16C07E00168C90503D401685C
:1009500021F008010160216C09B12046884794F814
:100960005C1020208840304231D021680968C906D7
:100970002DD5A86094F8350005282068016806D0B8
:10098000490347D5006800031DD4616C1CE021F0C9
:10099000160101602068416921F080014161206CED
:1009A00008B9A06C20B12068016821F0080101603D
:1009B00094F85C103F208840A86084F8358084F863
:1009C0003490216D1FE0E16B09B120468847606DCE
:1009D00000282BD0606DC00714D0052084F83500A6
:1009E0002068016821F0010101600098401C00901E
:1009F000B84203D820680068C007F6D184F8358073
:100A000084F83490E16C002910D001B02046BDE894
:100A1000F04308470168C905D5D4016821F01001E9
:100A2000016084F8358084F83490CCE7BDE8F88321
:100A3000100000202DE9F041044600F07DF9064643
:100A40005CB1022084F83500002584F83450206819
:100A5000016821F0010101600DE00120BDE8F08195
:100A600000F06AF9801B052805D920206065032065
:100A700084F83500F2E720680068C007F0D12268EA
:100A8000116820480140D4E901031843D4E9033632
:100A90003343184363691843A3691843E369184350
:100AA000236A18430843616A042903D1D4E90B136C
:100AB00019430843106020684069666A20F0070106
:100AC00030460E43012704280CD1A06A0643E06A91
:100AD00040B12046FFF756FE20B14020606584F803
:100AE0003570BAE7206846612046FFF737FE94F874
:100AF0005C203F2191408160656584F8357000205D
:100B0000ACE700003F8010F070B5044600F014F927
:100B10000546601C02D004480078044400F00CF93B
:100B2000401BA042FAD370BD040000202DE9F84F0D
:100B3000DFF8BCA10022012503264FF00F090AF1BE
:100B4000040BAAF1040E00BF0B6805FA02F423405F
:100B5000A34270D10F7907F00307012F01D0022FB4
:100B600016D187684FEA420806FA08FC27EA0C0704
:100B7000D1F80CC00CFA08FC4CEA070CC0F808C00D
:100B80004768A7430C79C4F3001494403C43446085
:100B90000C79E443A4070AD0C4684FEA420C06FA71
:100BA0000CF7BC438F6807FA0CF72743C7600C7932
:100BB00004F00304022C12D1D40800EB840CDCF8FE
:100BC00020405707FF0E09FA07F824EA0804D1F875
:100BD000108008FA07F848EA0408CCF82080046876
:100BE0004FEA420C06FA0CF7BC430F7907F00307F3
:100BF00007FA0CF7274307604C6814F4403F70D0A5
:100C00003C4C276847F480472760246822F003079C
:100C100004F480440094384C07EB040CDCF80848DA
:100C200097074FEA177809FA08F7BC43334FB842E1
:100C300002D1002724E054E0314FB84201D101270E
:100C40001EE0304FB84201D1022719E02E4FB842C2
:100C500001D1032714E02D4FB84201D104270FE042
:100C60002B4FB84201D105270AE02A4FB84201D1E3
:100C7000062705E0284FB84201D1072700E00827E2
:100C800007FA08F72743CCF80878DAF80040574607
:100C9000D1F804C09C435FEACC2C00D51C433C60D7
:100CA000DBF800405F46D1F804C09C435FEA8C2C1F
:100CB00000D51C433C60DEF800407746D1F804C004
:100CC0009C435FEA8C3C00D51C433C60084F083FC6
:100CD0003C68D1F804C09C435FEACC3C00D51C437F
:100CE0003C60521C102AFFF42FAFBDE8F88F0000C3
:100CF000083C0140443802400030014000000240FE
:100D00000004024000080240000C024000100240B3
:100D10000014024000180240001C0240426921EA0F
:100D200002030A4043EA0241816170470AB18161CE
:100D300070470904FBE70000014880687047000025
:100D400004000020024881680278114481607047E5
:100D5000040000200B4810B5016841F400710160E7
:100D6000016841F480610160016841F480710160B3
:100D7000032000F06FF80F2000F006F800F024F8D0
:100D8000002010BD003C024070B50D4D04464FF4EC
:100D90007A712878B1FBF0F00A490968B1FBF0F0EC
:100DA00000F026FD48B9102C07D200222146501E23
:100DB00000F030F800206C6070BD012070BD0000B4
:100DC00004000020100000200A4808B5016841F422
:100DD00080410160006800F4804000900548001FD9
:100DE000016841F080510160006800F0805000907F
:100DF00008BD000044380240002809DB00F01F0253
:100E0000012191404009800000F1E020C0F800116C
:100E100070470000F0B40E4B1B680C46C3F302236E
:100E2000C3F10705042D00D90425191D072901D296
:100E3000002300E0DB1E012606FA05F1491E2140D1
:100E400099409E40761E16403143F0BC01F0CABF67
:100E50000CED00E0064900F0070208684FF6FF03BA
:100E6000184040EA0220034A10430860704700001F
:100E70000CED00E00000FA052DE9F8430546006896
:100E80004FF00109C1074FF0000601D1400727D5F7
:100E9000DFF80C81C8F86860FFF74EFF0746414C49
:100EA00005E000BFFFF748FFC01B022857D82068A5
:100EB0000001F7D468688101287A41EA0070394955
:100EC00084310860C8F86890FFF736FF074604E0F1
:100ED000FFF732FFC01B022841D820680001F7D578
:100EE0002878800752D52F484030016841F0805162
:100EF000016000682C4C00F080500090206840F4A5
:100F000080702060FFF718FF074604E0FFF714FF2A
:100F1000C01B022823D82068C005F7D5214C7034A7
:100F2000206810F4407020D0A98901F440718142FA
:100F30001BD020681D4920F44070C1F800900E605D
:100F400020602068C00710D0FFF7F6FE064641F289
:100F5000883707E0FFF7F0FE801BB84202D9032074
:100F6000BDE8F88320688007F4D5E9680D48C1F32F
:100F700001220830032A0BD0016821F4F811016026
:100F80002068A989C1F30B01084320600020E7E72E
:100F90000268074B22F4F81219400A430260EFE797
:100FA000000047420038024000700040400E4742B7
:100FB000FFFCFF0F2DE9F0470E46050065D0DFF876
:100FC0001481D8F80000F7B200F00700B04207D251
:100FD00088F80070D8F8000000F00700B04254D143
:100FE00028683D4C810712D5400703D5206840F49E
:100FF000E05020602878000703D5206840F4604066
:1010000020602068A96820F0F0000843206028785C
:10101000C0072DD0304968680839012812D002284D
:1010200013D0032811D00968890700292DDA216817
:1010300021F0030101432160FFF77EFE814641F26A
:10104000883A0EE009688903EFE709688901ECE74F
:10105000FFF772FEA0EB0901514502D90320BDE85C
:10106000F0872068696800F00C00B0EB810FEFD1C9
:10107000D8F80010404601F00701B14207D90770C7
:10108000006800F00700B04201D00120E7E72878AF
:10109000400705D52068E96820F4E0500843206047
:1010A0002878000706D52068296920F4604040EAC6
:1010B000C100206000F038F82168084AC1F303112C
:1010C000515CC8400649086006480068FFF75CFEAE
:1010D0000020C4E7003C024008380240786E000857
:1010E0001000002008000020044805490068096835
:1010F000044AC1F38221515CC840704710000020AF
:1011000008380240886E00080448054900680968EC
:10111000044AC1F34231515CC840704710000020BE
:1011200008380240886E0008154810B5006810F0B5
:101130000C02144813D04110042A0FD0082A0ED1F3
:101140000F4C241F2268236802F03F025B0207D580
:101150002068C0F38810A0FB010106E0084610BD1E
:101160002168C1F38811A1FB00010023FFF72AF8D1
:101170002168C1F30141491C4900B0FBF1F010BDE9
:10118000083802400024F4002DE9F84F04006ED026
:101190002078DFF84C93C007A9F104054AD009F183
:1011A00004000168C1F38101012908D00068C0F37F
:1011B000810002280AD1D9F80000400206D528682B
:1011C000800337D560680028E1D033E06068B0F56F
:1011D000803F10D0B0F5A02F286810D020F48030C8
:1011E0002860286820F4802028606068A8B1FFF794
:1011F000A3FD06460DE0286840F48030F4E740F493
:1012000080202860F7E700BFFFF796FD801B642869
:1012100073D828688003F7D50CE0FFF78DFD0646EC
:1012200005E000BFFFF788FD801B6428F0D8286820
:101230008003F7D42078DFF8AC8280074FF0000AF3
:101240003ED5A748001D016811F00C0F08D00068BA
:10125000C0F3810002280BD1D9F80000400207D466
:101260002868800716D5E068012800D112E033E134
:10127000E068B8B10120C8F80000FFF75DFD064640
:1012800005E000BFFFF758FD801B0228C0D8286882
:101290008007F7D52868216920F0F80040EAC100EE
:1012A00028600DE0C8F800A0FFF746FD064604E000
:1012B000FFF742FD801B02281FD828688007F7D45B
:1012C0002078000722D5864F87486169703771B151
:1012D00001210160FFF730FD064604E0FFF72CFD19
:1012E000801B022809D838688007F7D50EE0C0F8BF
:1012F00000A0FFF721FD064605E082E0FFF71CFD98
:10130000801B02287DD838688007F7D420784007F2
:1013100068D5DFF8CCB100270BF13C0BDBF80000FF
:10132000C0000BD4DBF8001041F08051CBF8001066
:10133000DBF80000012700F0805000906B4E306811
:10134000C00510D4306840F480703060FFF7F4FCC2
:10135000009005E0FFF7F0FC0099401A022850D8F1
:101360003068C005F6D55E4EA0686C3601280FD0F7
:101370000528306810D020F001003060306820F07F
:1013800004003060A068B8B1FFF7D6FC00900FE011
:10139000306840F00100F4E740F004003060F7E707
:1013A000FFF7CAFC0099411A41F28830814266D8A1
:1013B00030688007F4D50EE0FFF7BEFC009007E030
:1013C000FFF7BAFC0099411A41F28830814256D8A1
:1013D00030688007F4D42FB1DBF8001021F0805181
:1013E000CBF80010A069C8B33D49091D0968C1F3D5
:1013F000810102294AD00228504607D0C8F860006F
:1014000000E03CE0FFF798FC04463BE04746C8F8A4
:101410006000FFF791FC064605E000BFFFF78CFC7B
:10142000801B02282BD828688001F7D4D4E9070153
:101430000843A16A2E4A490802EB0141626A41EA67
:101440008211084394F82C1040EA0161C9F8001099
:1014500001203866FFF770FC044606E03EE000BF5E
:10146000FFF76AFC001B022809D828688001F7D51D
:1014700034E000BFFFF760FC001B022802D9032004
:10148000BDE8F88F28688001F4D427E00128F7D060
:10149000D9F80000E26900F4800191421CD1226A6F
:1014A00000F03F01914217D147F6C071626A0140D6
:1014B000B1EB821F10D1A26A4FF0FF3300F440312C
:1014C00003EB5202B1EB024F06D194F82C1000F05E
:1014D0007060B0EB016F01D00120D1E70020CFE7B1
:1014E0000438024000004742800E4742007000402E
:1014F0000000FFFF10B500680B4641680D48014031
:10150000080CD870C1F304245C7001F03F049C7097
:10151000C1F34231197052B901F094F9D87058787A
:1015200001F090F95870987801F08CF998700020CB
:1015300010BD00003FFFFF0010B50B460168896A2F
:10154000596001680969C1F30E019960006801687A
:101550000D480140C1F305401870C1F306245C70CA
:1015600001F07F049C70890DD97052B901F06AF9BD
:101570001870587801F066F95870987801F062F99F
:101580009870002010BD00007F7F7F0010B5040020
:1015900002D0607F10B106E0012010BD002020774E
:1015A000204600F041F8022060772068C168C943F6
:1015B000C90632D5CA2141622168532048622046BB
:1015C00001F054F920BB20688168164A11408160FF
:1015D0002168886862681043D4E904231A431043E1
:1015E00088602168E068086120680169228941EA11
:1015F00002410161204601F05DF948B921680A6C99
:1016000022F480220A6421680A6CA3691A430A64DE
:101610002268FF21516208B110BD002001216177CD
:1016200010BD0000BFFF8FFF1FB500210091019189
:10163000029103910068084988420CD10220009071
:10164000000203906846FFF717FC08B1FFF7C5F8E2
:101650000249012008601FBD002800403C0E47429F
:1016600070B50446007F0B46012819D00126267765
:1016700002206077B2B19878D97840EA014558786D
:101680001978000240EA413005432168CA204862C7
:10169000216853204862204601F0E8F8D0B122E0EA
:1016A000022070BD5878C10603D500F0EF000A3063
:1016B0005870D87801F0CFF80204587801F0CBF8D0
:1016C00042EA0022987801F0C6F80243187842EA0C
:1016D0004035DAE70748054020684560204601F0BC
:1016E000E9F800B966772268FF215162002121776D
:1016F00070BD00003FFFFF002DE9F0410446007F70
:101700000D46012823D04FF0010884F81C800220E8
:1017100060772068002780684FEA4060D2B10028D7
:1017200000DBEF70A878297840EA01466878E9780C
:10173000000240EA815006432168CA2048622168BD
:1017400053204862204601F091F8B8B12CE0022005
:10175000BDE8F081002800DBEF70287801F07BF80D
:101760000204687801F077F842EA0022A87801F0D4
:1017700072F80243E87842EA8056DDE70D480640F9
:10178000206806602068816821F480218160D5E9A5
:101790000301084321688A6810438860204601F0ED
:1017A00089F808B984F81D802268FF2151622777E3
:1017B000CEE700007F7F7F0070B504460B482168AC
:1017C000C860FFF7B9FA05464FF47A7607E000BF24
:1017D000FFF7B2FA401BB04201D9032070BD206868
:1017E000C0688006F4D5002070BD00005F7F010056
:1017F00010B5401EB0F1807F01D3012010BD4FF025
:10180000E02460610F21601701F0ECFA0020A06174
:1018100007202061002010BD7047704770B590F818
:101820003C20012A32D0012480F83C40022280F87A
:101830003D2003685A689D6822F070060A683243AA
:101840005A60134B02689A4214D0B2F1804F11D003
:10185000104B9A420ED0104B9A420BD00F4B9A422B
:1018600008D00F4B9A4205D00E4B9A4202D00E4B35
:101870009A4204D1496825F080031943916080F8A9
:101880003D40002180F83C10084670BD022070BD2C
:10189000000001400004004000080040000C00402F
:1018A00000040140004001400018004010B5040051
:1018B00003D094F83D0010B107E0012010BD0020D6
:1018C00084F83C00204600F01FF8022084F83D0018
:1018D000211D206801F062F8012084F8460084F898
:1018E0003E0084F83F0084F8400084F8410084F80A
:1018F000420084F8430084F8440084F8450084F8EA
:101900003D00002010BD000008B500680B4988426A
:1019100012D10B48016841F001010160006800220A
:1019200000F00100009011461920FFF773FABDE89E
:1019300008401920FFF760BA08BD00000000014010
:101940004438024090F83D10012901D00120704731
:10195000022180F83D100168CA6842F00102CA60A5
:1019600000681149884214D0B0F1804F11D00F495E
:1019700088420ED00E4988420BD00E49884208D0CA
:101980000D49884205D00D49884202D00C49884251
:1019900004D1816801F00701062903D0016841F0F4
:1019A0000101016000207047000001400004004078
:1019B00000080040000C00400004014000400140CD
:1019C0000018004070B5044690F83C00002501283E
:1019D00017D0012684F83C60022084F83D0020687E
:1019E000826822F0770222F47F42826008685028E1
:1019F00038D00DDC20284FD005DC90B3102811D151
:101A00004AE0022070BD302846D040280AD13BE091
:101A100060282FD070280DD0B0F5805F03D0B0F5CE
:101A2000005F12D0012584F83D60002084F83C005E
:101A3000284670BDCB68D1E90121206801F01AF871
:101A40002068816841F0770109E0CB68D1E9012184
:101A5000206801F00FF82068816841F480418160BE
:101A6000E1E719E0CA684968206801F015F85021DB
:101A7000206806E0CA684968206801F01EF8602105
:101A8000206801F001F8CEE7CA684968206801F0D3
:101A900003F840212068F4E7226801461046F0E789
:101AA00070472DE9F04104460068C66805694FF0AB
:101AB0000007A90713D5B10711D5F91E016101204F
:101AC0002077206880698007204602D0FFF7E8FF72
:101AD00004E000F07EF8204600F07CF827776807E5
:101AE00016D5700714D521686FF004000861022034
:101AF00020772068806910F4407F204602D0FFF7ED
:101B0000CFFF04E000F065F8204600F063F8277787
:101B1000280715D5300713D521686FF00800086134
:101B2000042020772068C0698007204602D0FFF794
:101B3000B7FF04E000F04DF8204600F04BF827779F
:101B4000E80616D5F00614D521686FF0100008617C
:101B5000082020772068C06910F4407F204602D01A
:101B6000FFF79EFF04E000F034F8204600F032F862
:101B70002777E80708D0F00706D021686FF001004A
:101B80000861204600F028F8280608D5300606D55A
:101B900021686FF0800008612046FFF73DFE68066F
:101BA00008D5700606D521686FF040000861204610
:101BB00000F02CF8A8060AD5B00608D521686FF009
:101BC000200008612046BDE8F041FFF726BEBDE8D1
:101BD000F08170477047000010B5006808498842DE
:101BE0000DD1084C2088411C2180B0F57A7F06D3A6
:101BF0004FF480710448FFF791F80020208010BD59
:101C000000000140000000200000024070477047C3
:101C100070470000F8B5016804460868CA684B6957
:101C200010F00F0F4FF0000559D003F0010602F439
:101C30009077374365D0C10705D0D10503D5616CD6
:101C400041F001016164410705D5D90703D0616CFA
:101C500041F002016164810705D5D90703D0616CA9
:101C600041F004016164010707D502F0200131430E
:101C700003D0616C41F008016164616C00293AD0C5
:101C8000800604D5900602D5204600F057FF206854
:101C90004069616CC0F38010090700D460B320462E
:101CA00000F025FF20684069400621D520681430E7
:101CB00050E8001F21F0400140E80012002AF5D151
:101CC000E06BA8B16E490165E06BFEF7D1FD00281D
:101CD00011D0E06B016D01B0BDE8F040084783060C
:101CE0000FD593060DD52046BDE8F84000F026BF7D
:101CF0002046FFF78DFFF8BD2046FFF789FF65649A
:101D0000F8BD266B2023012E7DD1C6067BD5D606D5
:101D100079D508684868009048694FF00206400687
:101D200041D5E16B086840680004000CE8D0A28D42
:101D30008242E5D9E085C869B0F5807F2DD0206862
:101D40000C3050E8001F21F4807140E80012002A96
:101D5000F5D12068143050E8001F21F0010140E85F
:101D60000012002AF5D12068143050E8001F21F03D
:101D7000400140E80012002AF5D184F84230256382
:101D800020680C3050E8001F21F0100140E80012DC
:101D9000002AF5D1E06BFEF722FD6663A08DE18D90
:101DA000401A81B22AE0A08DE18D401A81B2E08D07
:101DB0000028A5D00029A3D022680C3252E8000FD9
:101DC00020F4907042E80007002FF5D1206814300D
:101DD00050E8002F22F0010240E80027002FF5D143
:101DE00084F84230256320680C3050E8002F22F040
:101DF000100240E80023002BF5D166632046FFF770
:101E000006FFF8BDFFE705062BD5150629D594F882
:101E100041002128F5D1A068B0F5805F01D120698B
:101E2000B0B1206A411C2162216800784860E08CD2
:101E3000401E0004000CE084E3D12068C16821F05A
:101E40008001C1602068C16841F04001C160D8E7ED
:101E5000206A0088C0F308004860206A801C206265
:101E6000E5E74006CDD55006CBD5CA68204622F01E
:101E70004002CA6084F8413000F02CF9C1E700004C
:101E8000DF2A000870B5040004D094F84100002552
:101E900010B106E0012070BD84F84050204600F0EB
:101EA00023F8242084F841002068C16821F40051FF
:101EB000C160204600F0A4FE2068016921F4904131
:101EC00001612068416921F02A0141612068C168EF
:101ED00041F40051C1606564202084F8410084F819
:101EE00042006563002070BD2DE9F04387B00646CF
:101EF00014216846FEF79EF93149306888425BD16B
:101F000030480024016841F010010160006800F0D1
:101F1000100005902B481438016841F00101016060
:101F20000068694600F0010005904FF4C060009021
:101F30000220CDE9010403200390072004902248E9
:101F4000FEF7F4FD224D21484FF000672860C5E9F7
:101F500001744FF48068C5E903486C614FF480391F
:101F6000AC61C5E9074928466C62FEF763FD08B11C
:101F7000FEF733FCF563AE63154D144860357830D9
:101F8000E5E802074020A5E81101114845F8144989
:101F90006030AC61C5E907496C62FEF74BFD08B1E2
:101FA000FEF71BFCB563002201212520AE63FEF77E
:101FB00031FF2520FEF720FF07B0BDE8F0830000C9
:101FC00000100140443802400000024040640240DA
:101FD0003802002090F84230202B01D002207047B8
:101FE00021B11AB10023036300F090BE01207047B5
:101FF00000680E49884218D10D4801780A290FD08F
:10200000B0F80031421C9954B0F8001111F10101EF
:10201000A0F800110649012201F58270FFF7DABF2E
:10202000012180F802110021F2E770470010014001
:10203000EC0000202DE9F843044690F84100984652
:1020400016460D46202802D00220BDE8F88385B14F
:102050007EB100206064212084F84100FEF76CFE10
:10206000A6848146E684A0682027B0F5805F02D070
:1020700003E00120E9E7206910B12E4600250EE0BB
:1020800000260CE08021204600F05BFEA8B9C6B116
:1020900016F8010B21684860E08C401EE084E08C5B
:1020A0004B464FF00002CDF800800028EAD14FF0F7
:1020B0004001204600F045FE40B184F84170032005
:1020C000C3E735F8020BC0F30800E3E784F841707A
:1020D0000020BAE77047FEE72DE9F04104461D46AF
:1020E00016460F462A2000F019FA204600F00CFA96
:1020F000304600F009FA2B2000F010FA384600F0C4
:1021000003FA284600F000FABDE8F0412C2000F068
:1021100005BA10B514460B460246FFF7DDFF204610
:10212000BDE8104000F0F0B92DE9F04780461F46A9
:10213000581E83B21646501E82B20C464046DDF849
:102140002090FFF7C9FF0AE0454604E0484600F04A
:10215000DBF96D1CADB2B542F8D3641CA4B2BC422D
:10216000F2D3BDE8F087000010B5012210217448B9
:10217000FEF7DCFD6420FEF7C7FC112000F0CEF96D
:102180007820FEF7C1FCB12000F0C8F9052000F06E
:10219000D9F93C2000F0D6F93C2000F0D3F9B22068
:1021A00000F0BCF9052000F0CDF93C2000F0CAF9A0
:1021B0003C2000F0C7F9B32000F0B0F9052000F092
:1021C000C1F93C2000F0BEF93C2000F0BBF905202D
:1021D00000F0B8F93C2000F0B5F93C2000F0B2F96D
:1021E000B42000F09BF9032000F0ACF9C02000F00F
:1021F00095F9282000F0A6F9082000F0A3F90420A2
:1022000000F0A0F9C12000F089F9C02000F09AF98F
:10221000C22000F083F90D2000F094F9002000F0B6
:1022200091F9C32000F07AF98D2000F08BF92A2073
:1022300000F088F9C42000F071F98D2000F082F9D7
:10224000EE2000F07FF9C52000F068F91A2000F0B8
:1022500079F9362000F062F9C02000F073F9E0202F
:1022600000F05CF9042000F06DF9222000F06AF91A
:10227000072000F067F90A2000F064F92E2000F032
:1022800061F9302000F05EF9252000F05BF92A208A
:1022900000F058F9282000F055F9262000F052F9F6
:1022A0002E2000F04FF93A2000F04CF9002000F009
:1022B00049F9012000F046F9032000F043F913200A
:1022C00000F040F9E12000F029F9042000F03AF98B
:1022D000162000F037F9062000F034F90D2000F048
:1022E00031F92D2000F02EF9262000F02BF92320C3
:1022F00000F028F9272000F025F9272000F022F926
:10230000252000F01FF92D2000F01CF93B2000F0E3
:1023100019F9002000F016F9012000F013F904204B
:1023200000F010F9132000F00DF93A2000F0F6F853
:10233000052000F007F9BDE81040292000F0EEB8B4
:10234000000402402DE9FF4F81B00446DDF83C90C7
:1023500000904FEA59074FF00008780700D001209D
:1023600000EBD70000FB09FB203AD0B203900298A3
:1023700002994844401E83B2E019401E82B22046B2
:10238000FFF7AAFE002553E0B9F10C0F2AD0B9F1EE
:10239000100F2ED0B9F1180F2ED0B9F1200F49D15E
:1023A0002749039801EB8010002610F805A010982B
:1023B00000284FF0010000FA06F000EA0A0022D0DF
:1023C00020B12046049A0299FFF7A3FE641C0098EE
:1023D000A4B2201AB84225D10298009C401C80B2B9
:1023E000029023E00398174900EB400001EB8000C6
:1023F000DAE71549039803E00398144900EB40001D
:1024000001EB0010D0E708B1049800E00E9800F04E
:102410007BF808F10100C0B2B0FBF7F1804607FB82
:10242000118050B1761CF6B2082EC0D36D1CADB22F
:102430005D45A9D305B0BDE8F08F4FF00008F5E782
:102440005C540008283800089C3C00088C420008B6
:102450002DE9FF4F83B00026DDE911B81D46824605
:102460004FEA58073446B1462CE0281B401EC1B243
:102470000A2001F0D1F90599B1FBF0F00A21B0FB77
:10248000F1F201FB120026B9691E8C4201DA58B143
:1024900001263030C2B204FB07A0CDF800B0CDE970
:1024A000018980B2109B08E0CDF800B004FB07A0C2
:1024B000CDE90189109B80B220220499FFF742FFE9
:1024C000641CE4B2AC42D0D307B0BDE8F08F2DE974
:1024D000FE4F9946DDE90D6714468A460546DDF84C
:1024E00030800CE0CDF800804B4651462846CDE9BF
:1024F0000167FFF727FF05EB560085B2641C2278C1
:10250000002AEFD1BDE8FE8F10B50446000A00F0A6
:1025100019F8E0B2BDE8104000F014B870B5084CEE
:102520000546002220212046FEF700FC284600F048
:1025300009F82046BDE8704001222021FEF7F6BBD5
:10254000000402402DE9F041154E0546002280218D
:102550003046FEF7EBFB00244FF40078B71500225D
:1025600039463046FEF7E2FB280601D5012200E09D
:10257000002241463046FEF7D9FB0122394630465B
:10258000FEF7D4FB6806641C050EE4B2082CE6D303
:102590003046BDE8F04101228021FEF7C7BB0000B4
:1025A000000402401A4808B50268002142F4800283
:1025B00002600068174A00F4800000901648C0E9E5
:1025C0000021802282609200C2605200C0E9042192
:1025D00081610422C161C0E908120322C0E90A2115
:1025E0000163FEF727FA08B1FEF7F7F8002211465B
:1025F0003A20FEF70FFC3A20FEF7FEFB00221146C0
:102600004620FEF707FCBDE808404620FEF7F4BB75
:102610003038024028640240240000202DE9F041B7
:1026200086B014216846FDF705FE234800250168A1
:1026300041F080010160016801F0800105910168AD
:1026400041F001010160016801F00101059101689B
:1026500041F0020101600068012200F00200174F02
:102660001402059021463846FEF760FBDFF85080E3
:102670004FF46C76012231464046FEF757FB00943A
:102680000124694638460194CDE90245FEF74EFA29
:102690000220CDE90240CDE9006469464046FEF7DC
:1026A00045FA4020CDE90005694602944046FEF710
:1026B0003DFA06B0BDE8F08130380240000002402B
:1026C0000004024010B586B014216846FDF7B2FD43
:1026D0001D4800241B490594C0E900147F21816036
:1026E000FF21C0E9031444618461FEF74FFF08B184
:1026F000FEF773F811208DF800000C208DF8010012
:102700008DF802400394002269460F480494FEF7B6
:10271000F3FF08B1FEF761F807208DF814000620DA
:102720008DF8150017208DF816008DF8174000223F
:1027300005A90548FEF794FF002801D0FEF74DF8E3
:1027400006B010BD002800408400002010B586B0FF
:1027500000241848009401940294039404941449AA
:1027600005940160A721C0E9011440F2E731C0E9F6
:1027700003148021C0E90541FFF798F808B1FEF77E
:102780002CF84FF48050009069460A48FFF71AF978
:1027900008B1FEF722F8049404A906480594FFF74F
:1027A0003DF8002801D0FEF718F806B010BD000073
:1027B00000000140A40000200C4810B50A49016047
:1027C0004FF4E1314160002181600C22C160C0E919
:1027D00004128161C161FFF755FB002803D0BDE8F9
:1027E0001040FDF7FABF10BD00100140F0010020BD
:1027F000FEE7000000B587B0002269460E48FEF7EC
:102800009BFE002205A90C48FEF774FE0B489DF8BC
:10281000171001809DF8151041809DF816108180D9
:102820009DF80010C1809DF8011001819DF80210F3
:10283000418107B000BD0000840000201800002086
:10284000FEE77047010901EB810100F00F0000EB8A
:102850004100C0B27047002102E00A38C0B2491CF2
:102860000A28FAD2090740EA116070472DE9F041C1
:10287000044600680025C168490618D4C16841F0C3
:102880008001C160FEF758FA06464FF47A780427B3
:1028900007E000BFFEF750FA801B404501D967777B
:1028A00001252068C068400601D4002DF2D02846DA
:1028B000BDE8F08170B5044600680025C16821F0CC
:1028C0008001C16020688068800606D42046FEF73B
:1028D00073FF10B1042060770125284670BD704752
:1028E000FEF730BA30B593B030216846FDF7A2FC50
:1028F00014210CA8FDF79EFC1F480025016841F03B
:1029000080510160006800F0805011901B48016800
:1029100041F4804101600068022400F4804011907D
:10292000092000904FF4803001900120CDE905048A
:1029300080050790082008904FF4A870CDE909049D
:1029400004200B906846FEF71FFC08B172B6FEE744
:102950000CA90F2081E831004FF4A0500F904FF4E4
:102960008050109005210CA8FEF724FB002801D010
:1029700072B6FEE713B030BD403802400070004030
:102980000248016841F470010160704788ED00E081
:102990000148FFF786B80000A4000020F0B50268E7
:1029A000294C2A4D2A4E2B4F2B4B4FF0804CA042E6
:1029B00009D0604507D0A84205D0B04203D0B84244
:1029C00001D0984204D122F0700E4A6842EA0E0209
:1029D000A0421BD0604519D0A84217D0B04215D0F4
:1029E000B84213D0984211D01C4DA8420ED01C4DB5
:1029F000A8420BD01B4DA84208D01B4DA84205D0C1
:102A00001A4DA84202D01A4DA84203D122F44075B3
:102A1000CA682A434D6922F080022A4302608A680C
:102A2000C2620A688262A04201D0984201D109695B
:102A30000163012141610169C90703D0016921F0E6
:102A400001010161F0BD00000000014000040040F0
:102A500000080040000C004000040140004001401C
:102A6000004401400048014000180040001C0040A4
:102A70000020004010B5846842EA032224F47F4419
:102A80000A432243826010BD826822F070020A432A
:102A900042F007018160704710B5036A046A24F0B0
:102AA00001040462846924F0F00444EA021423F06F
:102AB0000A020A438461026210BD10B5036A046A07
:102AC00024F010040462846923F0A00324F4704409
:102AD00044EA023243EA01118261016210BD10B57D
:102AE000806B0021C185C184FFF792F810BD016899
:102AF0000C3151E8002F22F4907241E80023002BA2
:102B0000F5D10168143151E8002F22F0010241E8AB
:102B10000023002BF5D1016B012909D101680C318B
:102B200051E8002F22F0100241E80023002BF5D1DC
:102B3000202180F8421000210163704708B590F809
:102B40004210222901D0022008BD82684FF4805330
:102B50009A4201D1016921B1816A9A421BD04AB1DE
:102B60000AE00268816A5268C2F308020A80816A38
:102B7000891C08E0026972B10268526802F07F02A3
:102B80000A70816A491C8162C18D491E0904090CC1
:102B9000C18503D01BE002685268F1E70168CA688A
:102BA00022F02002CA600168CA6822F48072CA60FA
:102BB00001684A6922F001024A61202180F842102E
:102BC00000214163026B012A03D0FFF711FA0020B4
:102BD00008BD016301680C3151E8002F22F010029A
:102BE00041E80023002BF5D101680A68D20602D51E
:102BF0000A6849680091818DFFF709F8E7E700004E
:102C000070B5044600680169E26821F4405111433F
:102C100001612169A068E2690843616911430843C1
:102C20002168CA6849F20C639A430243CA6020686B
:102C30004169A26921F44071114341613149206821
:102C4000884202D03049884202D1FEF75DFA01E0A5
:102C5000FEF74AFAE2690023192164253226B2F50B
:102C6000004F626828D0A0FB0101930F9200FDF78E
:102C7000A9FA0146B0FBF5F06FF01802504301EBE2
:102C8000800006EB0010B0FBF5F000F0F002B1FBA5
:102C9000F5F002EB0012B1FBF5F06FF018035843AA
:102CA00001EB800006EB0010B0FBF5F000F00F0028
:102CB00021681044886070BDA0FB010192185B413F
:102CC000FDF780FA0146B0FBF5F00201B1FBF5F02B
:102CD0006FF01803584301EB800006EBC000B0FB17
:102CE000F5F000F0F80002EB4002B1FBF5F05843BC
:102CF00001EB800006EBC000B0FBF5F000F0070030
:102D0000D6E7000000100140001401408162828576
:102D1000C28500214164222180F84210016921B15D
:102D20000168CA6842F48072CA6001684A6942F068
:102D300001024A610068C16841F02001C1600020C1
:102D400070472DE9F843984617460D460446089EFD
:102D500024E0701C22D0FDF7EFFFA0EB0800B0428A
:102D60001AD8CEB12068C168490717D5802D15D073
:102D7000402D13D00168C94309070FD4016800250D
:102D8000406800902046FFF7B2FE0820606484F897
:102D900040500120BDE8F8830320FBE7206800686D
:102DA00035EA000004D00020B842D2D00020F1E77C
:102DB0000120F9E70148FEF72DBF0000F0010020D7
:102DC000FEE700000FB4054B10B503A9044A0298B2
:102DD00000F0EAF810BC5DF814FB0000B136000802
:102DE000140000200907090E002804DB00F1E02090
:102DF00080F80014704700F00F0000F1E02080F828
:102E0000141D704702E008C8121F08C1002AFAD139
:102E100070477047002001E001C1121F002AFBD15A
:102E2000704700002DE9FF5F82B00021DDE904302A
:102E3000020DDDF840B0034318D044F61050A2F262
:102E4000FF3242431514119801281FD0A5EB0B0047
:102E5000401C5FEA000A4FF000064E4FDFF8389141
:102E6000B046504615D5CAF1000413E0119801246C
:102E70004AA3012801D16FEA0B010298119AC0E917
:102E80000031C0E9024206B0BDE8F09FCBF100007E
:102E9000DFE704460021404A491842EB0450CDE9DF
:102EA000001012E0E00707D032463B464046494654
:102EB000FDF7B5FA8046894632463B46104619462C
:102EC000FDF7ADFA06460F466410002CEAD1DDE9A5
:102ED0000401DDE90023BAF1000F06DAFDF79FFADD
:102EE00042464B46FDF79BFA05E0FDF70AFB4246DA
:102EF0004B46FDF706FB04460E460022284BFDF725
:102F000087FB03D84FF0FF30014607E00022254B36
:102F100020463146FDF7DCF9FDF762FB102409E09D
:102F2000002C0ADB0A220023FDF74CF9039B303208
:102F30001A55641E50EA0102F2D1641C039AC4F1CE
:102F400011031444119A012A03D0012208430DD120
:102F50000AE0084304D000204FF0110B119072E7F3
:102F6000A3EB0B056D1E0DE05B4504DD4FF0000289
:102F700005F1010504E003DA4FF00002A5F10105B7
:102F8000002AECD002981199C0E90231C0E900454D
:102F900079E70000000014400000F03F300000001E
:102FA0000000F0430000E03F2DE9FF4F95B09A4646
:102FB000884606460025EEE1252877D100242746DD
:102FC000F94A0121039400E0044316F8013F203B35
:102FD00001FA03F01042F7D130782A2811D06FF0AF
:102FE0002F033078A0F13002092A16D8039A44F052
:102FF000020402EB820203EB42021044761C0390AF
:10300000EFE758F8042B0392002A03DA504244F405
:103010000054039044F00204761C30782E2816D118
:1030200016F8010F44F004042A280DD06FF02F0287
:103030003078A0F13003092B09D807EB870302EBA6
:103040004303C718761CF3E758F8047B761C3078E6
:103050006C280FD006DC4C2817D068280DD06A28C1
:1030600014D104E0742810D07A280FD10DE044F474
:1030700000140AE044F4801401E044F4401472782F
:10308000824202D104F58014761C761C30786628C2
:103090000BD013DC582877D009DC002875D04528E0
:1030A000F6D04628F4D047281AD193E118E06328D7
:1030B00035D0642879D0652812D18BE1702873D07F
:1030C00008DC6728F1D069286FD06E280DD06F28F2
:1030D00006D1ACE073282CD0752874D0782853D052
:1030E0005246179990476D1C54E1C4F302500228D0
:1030F00009D003280DD0D8F8001004280DD00D6099
:1031000008F1040846E1D8F80010EA17C1E90052B6
:10311000F6E7D8F800100D80F2E70D70F0E718F828
:10312000041B8DF8001000208DF80100EB460120F3
:1031300003E058F804BB4FF0FF3061074FF0000187
:1031400002D40DE009F101018946B9420FDA814547
:10315000F8DB1BF809100029F4D108E009F101019E
:1031600089468142FADB1BF809100029F6D1039841
:103170005346A0EB090721463846179A00F080FA1B
:10318000284400EB090507E044E008E10DE01BF8E6
:10319000010B524617999047B9F10109F7D25346EE
:1031A00021463846179AF2E039E00A21C4F3025268
:1031B0004FF0000B0091022A06D058F8040BC117FB
:1031C000032A09D00AE023E008F1070020F00702F3
:1031D000F2E80201904605E000B2C117042A01D1CD
:1031E00040B2C117002906DA0A460021404261EBCD
:1031F00002012D2202E0220504D52B228DF80420A5
:10320000012203E0E20701D02022F7E7914657E0D0
:103210000A2100E010214FF0000B00910BE010217B
:103220004FF0000B44F004040827009103E008204D
:103230004FF0000B0090C4F30252022A05D058F858
:10324000040B0021032A08D008E008F1070020F051
:103250000702F2E80201904603E080B2042A00D19E
:10326000C0B24FF0000922072AD53278702A07D061
:10327000DDF800C08CF0100C5CEA0B0C05D00EE001
:1032800040228DF80420012208E050EA010306D014
:1032900030238DF804308DF8052002229146009BE2
:1032A00083F0080353EA0B030AD150EA010201D16B
:1032B000620705D530228DF804204FF001097F1EEA
:1032C0003278582A04D039A20C920CAA02920BE050
:1032D0003BA2F9E75B46009AFCF774FF0C9B9B5CF2
:1032E000029A521E0292137050EA0102F2D1029821
:1032F00004A9081A00F1200B600702D524F48034D9
:1033000000E001275F4502DDA7EB0B0000E0002095
:1033100000EB0B01009003984944401A0390E0032E
:1033200006D453462146179A039800F0A9F905449C
:10333000002706E001A85246C05D179990476D1C12
:103340007F1C4F45F6DBE0030CD553462146179A08
:10335000039800F095F9054404E03020524617998F
:1033600090476D1C0099481E00900029F5DC08E08C
:103370000298029952460078491C02911799904789
:103380006D1CBBF10001ABF1010BF1DC5BE100F066
:1033900065F90544761C307800287FF40DAE19B02D
:1033A0002846BDE8F08F0000092801003031323393
:1033B0003435363738396162636465660000000071
:1033C000303132333435363738394142434445465B
:1033D00000000000600700D4062708F1070020F075
:1033E0000700F0E80223804603F0004C5FEA0C007F
:1033F00001D097A009E0200501D596A005E0E007DF
:1034000001D095A001E0AFF24C001390307823F08A
:10341000004365280CD006DC452809D046281DD07D
:1034200047287FD13BE0662818D067287AD136E05C
:103430000021112F01DB112000E0781CCDE90001F3
:1034400004A90CA8FFF7EEFCDDE90D010C9A4FF082
:10345000000B07F10109109200914EE04FF000407F
:103460000097CDE9011004A90CA8FFF7DBFCDDE90A
:103470000D020C9B0F994FF0000B91461093009298
:1034800011B9791C00EB0109B7EB090003D4C0F1B5
:10349000FF3B07F10109A9EB0700019042E0012F72
:1034A00000DA01270021112F01DD112000E038464C
:1034B000CDE9000104A90CA8FFF7B4FCDDE90D017A
:1034C0000C9A00914FF0000BB946109221070FD4CF
:1034D000009A4A4503DA914601E0A9F10109B9F1E0
:1034E000010F05DD109AA9F10101515C3029F4D0DA
:1034F000B84202DA10F1040F03DA0121CDE901101C
:1035000010E0002803DC8344A9EB000102E0411C29
:10351000494500DD8946A0EB0B00401C01904FF0AF
:1035200000400290200705D40198484502DB4FF087
:10353000FF30019000208DF84B0002980DF14B07F1
:10354000B0F1004F25D002200C902B200D90029856
:1035500000280CDA404202902D200D9007E00A214D
:103560000298FCF780FE3031029007F8011D0C999B
:10357000481E0C900029F2DC02980028EFD1791E39
:103580000D980870307800F0200040F0450007F8F2
:10359000020D11A8C01BC01D02901398007800B145
:1035A000012000EB0901019801EBE0710298014450
:1035B0000398401A401E0390E00306D45346214668
:1035C000179A039800F05CF805441398007818B136
:1035D0005246179990476D1CE00323D55346214668
:1035E000179A039800F04CF805441BE0BBF1000F5C
:1035F00007DB0098584504DD1098179910F80B0068
:1036000001E0179930205246904701980BF1010BC9
:10361000401E05F10105019004D12E205246179954
:1036200090476D1CB9F10001A9F10109DEDC05E04C
:1036300017F8010B5246179990476D1C0299481EC6
:1036400002900029F4DC53462146179A03989EE61F
:103650002D0000002B000000200000002DE9F041AB
:10366000044600251E461746880404D405E0394662
:103670002020B0476D1C641EF9D52846BDE8F081B6
:103680002DE9F041044600251E469046C80301D5A9
:10369000302700E02027880404D505E0414638465D
:1036A000B0476D1C641EF9D52846BDE8F0810000C6
:1036B00013B54FF6FF73012269460548FEF7BAFCC1
:1036C000034800680168C9434906FBD400981CBD43
:1036D000F00100200EB5FDF73DFBFFF703F9FEF703
:1036E0009DFFFEF75FFFFFF767F8FFF72FF8FEF784
:1036F000E9FF01223C493D48FEF76CFC3C48FEF7DF
:1037000021F9FEF731FD4FF6FF740021A02380223E
:1037100008460094FEF708FD4FF0000810258DE8DC
:1037200030014FF478461E21334632A20846FEF798
:10373000CEFE324FDFF8B090B24600BFFFF75AF826
:10374000CDF800A0CDE901455646FA880223322182
:103750000020FEF77DFE0096CDE901453A8902235F
:1037600032211420FEF774FE0096CDE901457A89D6
:10377000022332212820FEF76BFE0096CDE9014599
:103780003A88022350210020FEF762FE0096CDE920
:1037900001457A88022350211420FEF759FE009635
:1037A000CDE90145BA88022350212820FEF750FEBA
:1037B00099F802014E460128C0D186F8028110A175
:1037C000701CFCF742FD38B9701CFFF7FBFA4FF490
:1037D00080710D48FDF7A2FA0CA0FFF7F3FAFF2164
:1037E000701CFCF727FDA9E7EC000020F001002089
:1037F000A400002048454C4C4F0000001800002059
:103800004C45440D00000000000002405541525458
:103810005F464C41470D0A000246012000E050433C
:10382000491EC9B2FBD27047000000000000000032
:103830000000000000000404040404000004000070
:1038400014140A00000000000000000000000A0A32
:103850001F0A0A1F0A0A000000040E1505060C14B0
:10386000150E0400000012150D152E2C2A12000052
:103870000000040A0A36151529160000020201008C
:103880000000000000000000100808040404040404
:1038900008081000020404080808080804040200CC
:1038A00000000004150E0E150400000000000008C2
:1038B000083E0808000000000000000000000000B2
:1038C0000202010000000000003F000000000000B4
:1038D00000000000000000000002000000201010A6
:1038E000080804040202010000000E111111111158
:1038F000110E00000000040604040404040E00007D
:1039000000000E1111080402011F000000000E113A
:10391000100C1010110E00000000080C0C0A091FFA
:10392000081C000000001F01010F1110110E000003
:1039300000000C12010D1311110E000000001E10EA
:10394000080804040404000000000E11110E1111F7
:10395000110E000000000E111119161009060000CA
:10396000000000000400000000040000000000004F
:103970000004000000040400000010080402020417
:1039800008100000000000003F003F0000000000A1
:1039900000000204081010080402000000000E11CC
:1039A000110804040004000000001C22292D2D1D14
:1039B000221C0000000004040C0A0A1E123300003E
:1039C00000000F12120E1212120F000000001E1142
:1039D00001010101110E000000000F12121212125B
:1039E000120F000000001F120A0E0A02121F000030
:1039F00000001F120A0E0A020207000000001C123B
:103A000001013911120C000000003312121E1212B3
:103A10001233000000001F0404040404041F00000B
:103A200000003E08080808080808090700003712C7
:103A30000A060A1212370000000007020202020200
:103A4000223F000000003B1B1B1B15151535000015
:103A500000003B1216161A1A1217000000000E1171
:103A600011111111110E000000000F12120E0202AE
:103A70000207000000000E1111111117190E180095
:103A800000000F12120E0A121237000000001E1161
:103A900001060810110F000000001F1504040404A3
:103AA000040E00000000331212121212120C000059
:103AB00000003312120A0A0C04040000000015155D
:103AC00015150E0A0A0A000000001B0A0A04040A5F
:103AD0000A1B000000001B0A0A0A0404040E00006E
:103AE00000001F0908040402121F00001C04040443
:103AF0000404040404041C00000202040404080872
:103B0000081010000E0808080808080808080E0029
:103B1000040A000000000000000000000000000097
:103B2000000000000000003F020400000000000050
:103B30000000000000000000000C121C123C0000FD
:103B400000030202020E1212120E0000000000001A
:103B5000001C1202120C000000181010101C12128F
:103B6000123C000000000000000C121E021C0000AD
:103B700000182404041E0404041E000000000000B9
:103B8000003C120C021C221C00030202020E121244
:103B9000123700000004040000060404040E0000B4
:103BA00000080800000C08080808080700030202C3
:103BB000021A0A060A13000000070404040404049D
:103BC000041F000000000000000F1515151500006F
:103BD00000000000000F1212123700000000000069
:103BE000000C1212120C000000000000000F121254
:103BF000120E020700000000001C1212121C1038E6
:103C000000000000001B0602020700000000000088
:103C1000001E020C101E000000000004041E04041C
:103C2000041C000000000000001B1212123C0000E7
:103C300000000000001B0A0A04040000000000004D
:103C40000015150E0A0A000000000000001B0A04FF
:103C50000A1B000000000000003312120C080403CD
:103C600000000000001E0804041E000018080808D8
:103C7000080C0808080818000808080808080808B8
:103C800008080808060404040408040404040600E0
:103C90001609000000000000000000000000000005
:103CA000000000000000000000000000000000080C
:103CB00008080808080800001818000000486C24CC
:103CC00012000000000000000000000000000024BE
:103CD00024247F1212127F12121200000000081C0E
:103CE0002A2A0A0C1828282A2A1C08080000002260
:103CF000251515152A585454542200000000000CB4
:103D00001212120A76252911916E0000000606048F
:103D10000300000000000000000000000040201030
:103D200010080808080808101020400000020408C5
:103D30000810101010101008080402000000000005
:103D400008086B1C1C6B0808000000000000000045
:103D5000080808087F0808080800000000000000A4
:103D60000000000000000000060604030000000040
:103D700000000000FE000000000000000000000045
:103D80000000000000000000060600000000804067
:103D9000402020101008080404020200000000184F
:103DA00024424242424242422418000000000008DD
:103DB0000E08080808080808083E00000000003C3B
:103DC0004242422020100804427E00000000003CD5
:103DD0004242201820404042221C000000000020E7
:103DE0003028242422227E20207800000000007E3B
:103DF0000202021A26404042221C00000000003845
:103E00002402021A26424242241800000000007ECA
:103E10002222101008080808080800000000003CD2
:103E20004242422418244242423C00000000001852
:103E30002442424264584040241C0000000000001C
:103E40000000181800000000181800000000000012
:103E50000000000800000000000808040000004006
:103E60002010080402040810204000000000000098
:103E700000007F0000007F00000000000000000242
:103E80000408102040201008040200000000003C3C
:103E90004242464020101000181800000000001C8C
:103EA000225A555555552D42221C0000000000088D
:103EB00008181414243C224242E700000000001FAE
:103EC0002222221E22424242221F00000000007CC9
:103ED0004242010101010142221C00000000001FBA
:103EE0002242424242424242221F00000000003F62
:103EF0004212121E12120242423F00000000003F16
:103F00004212121E12120202020700000000003CC0
:103F10002222010101712122221C0000000000E781
:103F2000424242427E42424242E700000000003EDE
:103F30000808080808080808083E00000000007C7F
:103F400010101010101010101010110F000000773A
:103F500022120A0E0A121222227700000000000725
:103F60000202020202020202427F00000000007709
:103F7000363636362A2A2A2A2A6B0000000000E349
:103F800046464A4A52525262624700000000001CF4
:103F90002241414141414141221C00000000003FBB
:103FA000424242423E020202020700000000001CA0
:103FB0002241414141414D53321C60000000003F0D
:103FC0004242423E1212222242C700000000007C00
:103FD0004242020418204042423E00000000007F9E
:103FE0004908080808080808081C0000000000E745
:103FF0004242424242424242423C0000000000E74C
:104000004242222424141418080800000000006B07
:10401000494949495555362222220000000000E74F
:10402000422424181818242442E7000000000077D6
:104030002222141408080808081C00000000007E52
:104040002120101008040442423F000000780808B4
:104050000808080808080808080878000000020294
:10406000040408080810102020204040001E1010F2
:10407000101010101010101010101E000038440006
:104080000000000000000000000000000000000030
:104090000000000000000000000000FF0006080013
:1040A0000000000000000000000000000000000010
:1040B0000000003C4278444242FC00000000000343
:1040C0000202021A26424242261A000000000000A4
:1040D0000000003844020202443800000000006082
:1040E000404040784442424264D800000000000052
:1040F0000000003C427E0202423C0000000000F052
:104100008808087E08080808083E00000000000033
:104110000000007C22221C023C42423C00000003C2
:104120000202023A4642424242E700000000000C0E
:104130000C00000E08080808083E000000000030CF
:1041400030000038202020202020221E0000000304
:1041500002020272120A1612227700000000000EFC
:104160000808080808080808083E000000000000C9
:104170000000007F9292929292B70000000000002F
:104180000000003B4642424242E7000000000000BF
:104190000000003C42424242423C0000000000005D
:1041A0000000001B26424242221E020700000000BF
:1041B0000000007844424242447840E000000000A1
:1041C000000000774C040404041F000000000000FD
:1041D0000000007C42023C40423E00000000000023
:1041E0000008083E08080808083000000000000029
:1041F000000000634242424262DC00000000000016
:10420000000000E742242414080800000000000019
:10421000000000EB49495555222200000000000033
:104220000000007624181818246E0000000000001A
:10423000000000E7422424141808080700000000CA
:104240000000007E22100808447E000000C02020EC
:1042500020202010202020202020C000101010102E
:104260001010101010101010101010100006080878
:104270000808081008080808080806000C32C200E0
:10428000000000000000000000000000000000002E
:10429000000000000000000000000000000000001E
:1042A000000000000000000000000000000000000E
:1042B00000000000000000000000000000000000FE
:1042C00000000000600060006000600060006000AE
:1042D00060004000200020002000000000000000DE
:1042E00060006000600000000000000000000000AE
:1042F000600660063003980188004400000000005A
:1043000000000000000000000000000000000000AD
:10431000000000000000000000000000000000009D
:10432000000000001002100210021002FE07FE073B
:1043300008020801080108010801FE07FE07040140
:10434000040104010401000000000000000000005E
:10435000000040004000F00158034C03CC034C0027
:1043600058007000E000C001C00140034C035C0332
:104370004C034801F0004000400000000000000035
:10438000000000000E010A0191009100910051000F
:1043900051003A00AE03A0025004500448044804FF
:1043A00048048402840300000000000000000000B4
:1043B0000000000038006C006C006C006C006C00A9
:1043C0002C0098071C011A01330133016301E3003B
:1043D000C308C6093C070000000000000000000000
:1043E0000C001C0010001000080004000000000079
:1043F00000000000000000000000000000000000BD
:1044000000000000000000000000000000000000AC
:1044100000040002000180008000400040002000F5
:10442000200020002000200020002000400040004C
:104430008000800000010002000400000000000075
:1044400002000400080010001000200020004000BE
:10445000400040004000400040004000200020009C
:10446000100010000800040002000000000000001E
:1044700000000000000000004000C0004000460CAA
:104480004E0FD001F0015E0F460C4000400040008E
:10449000000000000000000000000000000000001C
:1044A000000000000000000000004000400040004C
:1044B00040004000FE0F400040004000400040002F
:1044C00000000000000000000000000000000000EC
:1044D00000000000000000000000000000000000DC
:1044E00000000000000000000000000000000000CC
:1044F0000C001C0010001000080004000000000068
:1045000000000000000000000000000000000000AB
:1045100000000000FE070000000000000000000096
:10452000000000000000000000000000000000008B
:10453000000000000000000000000000000000007B
:10454000000000000000000000000000000000006B
:104550001C001C001C000000000000000000000007
:10456000000400060002000300010001800080003A
:1045700040004000600020002000100010000800F3
:1045800008000C000400060002000000000000000B
:10459000000000000000F00098010C030C03060668
:1045A00006060606060606060606060606060C03A8
:1045B0000C039801F0000000000000000000000063
:1045C00000000000000040007C006000600060000F
:1045D00060006000600060006000600060006000DB
:1045E00060006000FC03000000000000000000000C
:1045F000000000000000F800840102030603060327
:10460000000300018001C0006000200010000802CB
:1046100004020602FE03000000000000000000008B
:104620000000000000007800C600860186018001BD
:104630008001C00070008001000100030003060338
:1046400006038601F80000000000000000000000E2
:1046500000000000000080018001C001A001A00155
:1046600090018801880184018201FE0F8001800190
:1046700080018001E0070000000000000000000051
:10468000000000000000FC0304000400040004001B
:104690000400F4008C010403000300030603060376
:1046A00082018401F800000000000000000000000A
:1046B000000000000000E00118030C030C000400DF
:1046C0000600E60116030E060606060606060406A2
:1046D0000C021803F00000000000000000000000C1
:1046E000000000000000F8070C06040204010001AD
:1046F0000001800080004000400040006000600039
:104700006000600060000000000000000000000089
:10471000000000000000F8010C030606060606066D
:104720000C021C03F000C8010C0306060606060670
:1047300006060C03F001000000000000000000006D
:10474000000000000000F0000C010C030602060649
:104750000606060606078C06780600060003000318
:104760000C018C0178000000000000000000000037
:104770000000000000000000000000000000000039
:10478000E000E000E0000000000000000000000089
:10479000E000E000E0000000000000000000000079
:1047A0000000000000000000000000000000000009
:1047B0006000600000000000000000000000000039
:1047C00000006000600040002000200000000000A9
:1047D00000000000000400020001800040002000F2
:1047E00010000800040008001000200040008000B5
:1047F00000010002000400000000000000000000B2
:1048000000000000000000000000000000000000A8
:10481000FE07000000000000FE070000000000008E
:104820000000000000000000000000000000000088
:10483000000000000400080010002000400080007C
:10484000000100020004000200018000400020007E
:10485000100008000400000000000000000000003C
:10486000000000000000E0031806040C040C0C0C0F
:104870000C0C0007800140004000400000000000D8
:10488000E000E000E0000000000000000000000088
:1048900000000000E00018030C02CC05640566056A
:1048A000A605B604B604B604B604B602E4010C04C8
:1048B0000C021803F00000000000000000000000DF
:1048C000000000000000600060005000D000900078
:1048D0009000880088010801F80104030403040221
:1048E000020202060F0F000000000000000000009E
:1048F000000000000000FE008C030C030C030C03FE
:104900000C038C01FC000C030C020C060C060C06BC
:104910000C060C03FE010000000000000000000077
:10492000000000000000E00318030C060C0404045F
:1049300006000600060006000600060006040C0439
:104940000C021803F000000000000000000000004E
:104950000000000000007F008C010C030C030C061B
:104960000C060C060C060C060C060C060C060C03BA
:104970000C038C017F00000000000000000000001C
:10498000000000000000FF03060306040604060002
:1049900086008600FE00860086008600060006046B
:1049A00006040602FF0300000000000000000000F3
:1049B000000000000000FF030603060406040600D2
:1049C00086008600FE00860086008600060006003F
:1049D000060006001F0000000000000000000000AC
:1049E000000000000000F00018010C020C0204029C
:1049F0000600060006000600C60F060306030C03A9
:104A00000C031803F000000000000000000000008C
:104A10000000000000000F0F060606060606060648
:104A200006060606FE07060606060606060606062D
:104A3000060606060F0F0000000000000000000040
:104A4000000000000000FC036000600060006000E7
:104A50006000600060006000600060006000600056
:104A600060006000FC030000000000000000000087
:104A7000000000000000F807C000C000C000C00037
:104A8000C000C000C000C000C000C000C000C00026
:104A9000C000C000C000C60066003C00000000006E
:104AA000000000000000CF038601C600460026007B
:104AB000160036002E006E004600C60086008601F5
:104AC000060106038F070000000000000000000040
:104AD0000000000000001F0006000600060006009F
:104AE0000600060006000600060006000600060492
:104AF00006040602FF0300000000000000000000A2
:104B00000000000000000707860386038E038E0363
:104B10004E034E034A035A035A033A033203320345
:104B200032031203870700000000000000000000AD
:104B30000000000000008E0F0C021C021C02340258
:104B40003402640264024402C402840284038403C3
:104B5000040304031F020000000000000000000026
:104B6000000000000000F00098010C030C02060693
:104B700006060606060606060606060606060C02D3
:104B80000C039801F000000000000000000000008D
:104B9000000000000000FF000603060606060606E9
:104BA000060606068603FE0006000600060006004E
:104BB000060006001F0000000000000000000000CA
:104BC000000000000000F00098010C030C02060633
:104BD00006060606060606060606060676064C02C3
:104BE000CC039801F00080070003000000000000E3
:104BF000000000000000FF01060306060606060688
:104C000006060603FE004600C6008600860106036F
:104C1000060306060F0E0000000000000000000062
:104C2000000000000000F8020C0306020602060065
:104C30000E003C00F800E0038003000702060206B5
:104C400006060C03F0010000000000000000000058
:104C5000000000000000FE076204610861086000B7
:104C60006000600060006000600060006000600044
:104C700060006000F801000000000000000000007B
:104C80000000000000001E070C020C020C020C02C7
:104C90000C020C020C020C020C020C020C020C02A4
:104CA0000C021801F00000000000000000000000ED
:104CB0000000000000000F070602040104010C01BF
:104CC0000C01880088009800980050005000700087
:104CD0003000200020000000000000000000000064
:104CE000000000000000F70E62044204460446047F
:104CF00064026402E402E4029C029C0198019801AF
:104D0000880188008800000000000000000000000A
:104D10000000000000009E070C010801180190002F
:104D2000B0006000200060006000D00090008801AA
:104D3000080104038E0700000000000000000000CE
:104D40000000000000000F0F060404020C0208011E
:104D50001801B800B00070006000600060006000E2
:104D600060006000F801000000000000000000008A
:104D7000000000000000FC070C0206030201800195
:104D800080004000400020002000100018000804AF
:104D90000C040402FE0300000000000000000000FC
:104DA000E003200020002000200020002000200040
:104DB00020002000200020002000200020002000F3
:104DC0002000200020002000E00300000000000080
:104DD000000000000400040008000800100010009B
:104DE00010002000200040004000C0008000800033
:104DF00000010001000200020002000400000000A7
:104E00007C00400040004000400040004000400066
:104E10004000400040004000400040004000400092
:104E200040004000400040007C00000000006000A6
:104E300090000801000000000000000000000000D9
:104E40000000000000000000000000000000000062
:104E50000000000000000000000000000000000052
:104E60000000000000000000000000000000000042
:104E70000000000000000000000000000000000032
:104E800000000000000000000000FF0F0000000014
:104E9000180060000000000000000000000000009A
:104EA0000000000000000000000000000000000002
:104EB00000000000000000000000000000000000F2
:104EC00000000000000000000000000000000000E2
:104ED000F0010C030C030003E0031C030E030603A4
:104EE00006038E0B7C0E0000000000000000000096
:104EF0000000000008000E000C000C000C000C006C
:104F0000CC013C031C060C060C060C060C060C0619
:104F10000C021C03E401000000000000000000007F
:104F20000000000000000000000000000000000081
:104F3000F0008C018C0186010600060006000602C6
:104F40000C020C01F0000000000000000000000056
:104F5000000000000002C003000300030003000380
:104F600078038C030C0306030603060306030603FB
:104F700004038C077801000000000000000000001E
:104F80000000000000000000000000000000000021
:104F9000E001180308020C060C06FC070C000C00CC
:104FA00018041802E00100000000000000000000EA
:104FB000000000000000C003600630063000300032
:104FC000FE01300030003000300030003000300092
:104FD00030003000FC010000000000000000000074
:104FE00000000000000000000000000000000000C1
:104FF000F007D8068C018C018C019801F8000C0098
:10500000FC00CC03060306038E03F800000000003A
:105010000000000008000E000C000C000C000C004A
:10502000EC011C030C030C030C030C030C030C031A
:105030000C030C039E0700000000000000000000AD
:105040000000000000006000600000000000400060
:105050007C00600060006000600060006000600034
:1050600060006000FC030000000000000000000081
:10507000000000000000C001C001000000000001AD
:10508000F0018001800180018001800180018001A8
:105090008001800180018001CC007C0000000000C4
:1050A0000000000008000E000C000C000C000C00BA
:1050B0008C038C008C004C006C005C008C008C011C
:1050C0000C010C039E07000000000000000000001F
:1050D0000000000040007C00600060006000600094
:1050E00060006000600060006000600060006000C0
:1050F00060006000FC0300000000000000000000F1
:10510000000000000000000000000000000000009F
:105110003707EE06660666066606660666066606D5
:1051200066066606FF0F0000000000000000000099
:10513000000000000000000000000000000000006F
:10514000EE011C030C030C030C030C030C030C03F7
:105150000C030C039E07000000000000000000008C
:10516000000000000000000000000000000000003F
:10517000F00098010C03060606060606060606065B
:105180000C030C03F0000000000000000000000011
:10519000000000000000000000000000000000000F
:1051A000EE011C030C060C060C060C060C060C0685
:1051B0000C031C03EC010C000C003E00000000007E
:1051C00000000000000000000000000000000000DF
:1051D00078028C030C03060306030603060306038A
:1051E00004038C03780300030003C00700000000E1
:1051F00000000000000000000000000000000000AF
:105200009F035806380618001800180018001800E8
:1052100018001800FF00000000000000000000005F
:10522000000000000000000000000000000000007E
:10523000F0031C030C020C023800F000C00304034E
:1052400004038C03FC0100000000000000000000CB
:1052500000000000000000002000200030003000AE
:10526000FE013000300030003000300030003000EF
:1052700030023002E00100000000000000000000E9
:105280000000000000000000000000000000080214
:105290008E030C030C030C030C030C030C030C0314
:1052A0000C039C07780100000000000000000000D3
:1052B00000000000000000000000000000000000EE
:1052C0001E070C020801080118019000B000B00090
:1052D00060006000200000000000000000000000EE
:1052E00000000000000000000000000000000000BE
:1052F000F70E6204460464026402EC029C01980109
:105300009801980108000000000000000000000063
:10531000000000000000000000000000000000008D
:10532000BC0718011001B00060006000E0009000B0
:10533000080108039E0700000000000000000000B4
:10534000000000000000000000000000000000005D
:105350009E0708010801080190009000B00060005D
:10536000600060002000200024001C0000000000FD
:10537000000000000000000000000000000000002D
:10538000FC018401C40044006000200030001802C9
:1053900008020C03FC0100000000000000000000F7
:1053A000000380008000800080008000800080007A
:1053B00080004000200040008000800080008000CD
:1053C000800080008000800000030000400040005A
:1053D00040004000400040004000400040004000CD
:1053E00040004000400040004000400040004000BD
:1053F000400040004000400040004000000000002D
:105400000C00100010001000100010001000100020
:1054100010002000400020001000100010001000BC
:1054200010001000100010000C00000000001C0014
:105430002204C204800300000000000000000000FD
:10544000000000000000000000000000000000005C
:10545000000000000000000000000000000000004C
:10546000000000000000000000000000000000003C
:10547000000000000000000000000000000000002C
:10548000000000000000000000000000000000001C
:10549000000000000000000000000000000000000C
:1054A000000000000000C001C001C001C001C00137
:1054B000C001C0018000800080008000800080006A
:1054C000800000000000000000008001C003C00355
:1054D000800100000000000000000000000000004B
:1054E0000000E01CE01CF01E700E380718030801D5
:1054F0008400000000000000000000000000000028
:10550000000000000000000000000000000000009B
:10551000000000000000000000000000000000008B
:1055200000000000000000002010201020102010BB
:105530002010FE7FFE7F10081008100810081008C9
:1055400010081008FE7FFE7F080408040804080401
:10555000080400000000000000000000000000003F
:105560000000000000010001C0076019103118316F
:105570001839183938017001E001C0038007000FA5
:10558000001D003900311C311C310C310C11180D7B
:10559000E007000100010001000000000000000021
:1055A00000000000000000001C1036186308630CA7
:1055B00063046304630263026301361D9C37802227
:1055C0008063406340632063206330631022183699
:1055D000081C0000000000000000000000000000A7
:1055E0000000000000000000F00098018C018C0118
:1055F0008C018C018C00CC007800183E1C08360809
:10560000320863046304C304C303834306438E2642
:10561000781C0000000000000000000000000000F6
:1056200000001C003C003C003000300010000C006A
:105630000600000000000000000000000000000064
:10564000000000000000000000000000000000005A
:10565000000000000000000000000000000000004A
:1056600000000040002000100008000C00040006AC
:10567000000300030003800180018001800180019C
:105680008001800180010003000300030006000682
:10569000000C000800100020004000000000000086
:1056A000000002000400080010003000200060002C
:1056B000C000C000C0008001800180018001800125
:1056C000800180018001C000C000C0006000600057
:1056D000300010000800040002000000000000007C
:1056E0000000000000000000000000000001800336
:1056F000800300011C713C79783DC0070001C007A0
:10570000783D3C791C71000180038003800100001A
:105710000000000000000000000000000000000089
:105720000000000000000000000000000000000178
:10573000000100010001000100010001FC7F0001E7
:105740000001000100010001000100010000000053
:105750000000000000000000000000000000000049
:105760000000000000000000000000000000000039
:105770000000000000000000000000000000000029
:105780000000000000000000000000001C003C00C1
:105790003C003000300010000C000600000000004B
:1057A00000000000000000000000000000000000F9
:1057B000000000000000000000000000FE7F00006C
:1057C00000000000000000000000000000000000D9
:1057D00000000000000000000000000000000000C9
:1057E00000000000000000000000000000000000B9
:1057F00000000000000000000000000000000000A9
:105800000000000000000000000018003C003C0008
:105810001800000000000000000000000000000070
:105820000000004000600020003000100018000858
:10583000000C00040006000200030001800180004B
:10584000C000400060002000300010001800080078
:105850000C00040006000200000000000000000030
:105860000000000000000000C007600C3018183075
:10587000183018200C600C600C600C600C600C6020
:105880000C600C600C601820183018303018600C58
:10589000C007000000000000000000000000000041
:1058A000000000000000000000018001F8018001FC
:1058B00080018001800180018001800180018001E0
:1058C0008001800180018001800180018001C0038E
:1058D000F81F0000000000000000000000000000B1
:1058E0000000000000000000E007101C0818043051
:1058F00004300C300C3000300018000800040002A6
:105900000001800040002020102008200430FC1FEF
:10591000FC1F00000000000000000000000000006C
:105920000000000000000000E003180E0C0C0C1832
:105930000C180C180018000C0006C003000E00180C
:105940000010003000300C300C300C100C18180C0B
:10595000E003000000000000000000000000000064
:105960000000000000000000000C000E000E000F00
:10597000800E800E400E600E200E100E100E080ECF
:10598000040E040EFE7F000E000E000E000E000E30
:10599000000EC07F000000000000000000000000BA
:1059A0000000000000000000F03FF03F1000100079
:1059B000100008000800C807280C1818081000304C
:1059C0000030003000300C300C3004180418080C83
:1059D000F0030000000000000000000000000000D4
:1059E0000000000000000000800FC01020301030C8
:1059F0001800180008000C008C0F6C183C301C605C
:105A00000C600C600C600C6018601820303060185E
:105A1000C0070000000000000000000000000000BF
:105A20000000000000000000F83FF83F1C100C08C8
:105A30000408040400040002000200010001000147
:105A4000800080008000C000C000C000C000C00016
:105A5000C000000000000000000000000000000086
:105A60000000000000000000E007300C18180C30A7
:105A70000C300C301C3038187008E007B007180ED6
:105A80000C1C063806300630063006300C18180C90
:105A9000E003000000000000000000000000000023
:105AA0000000000000000000E00318040C080C18BF
:105AB0000610063006300630063006380C3C183624
:105AC000F03100300018001800180C0C0C060C0304
:105AD000F0010000000000000000000000000000D5
